:020000040800F2
:103000000050002059500008ED4F0008EF4F000815
:10301000F14F0008F34F0008F54F000800000000D2
:10302000000000000000000000000000F74F000852
:10303000F94F000800000000FB4F0008FD4F00089A
:10304000A1500008A1500008A1500008A15000089C
:10305000A1500008A1500008A1500008A15000088C
:10306000A1500008A1500008A1500008A15000087C
:10307000A1500008A1500008A1500008A15000086C
:10308000A1500008A1500008A1500008A15000085C
:10309000A1500008A1500008A1500008A15000084C
:1030A000A1500008A1500008A1500008A15000083C
:1030B000A1500008A1500008A1500008A15000082C
:1030C000A1500008A1500008A1500008A15000081C
:1030D000A1500008A1500008A1500008A15000080C
:1030E000A1500008A1500008A150000800000000F5
:1030F00000000000000000000000000000000000D0
:0C31000000000000000000005FF808F173
:1031100010B5054C237833B9044B13B10448AFF311
:1031200000800123237010BD6C000020000000000F
:103130006059000808B5034B1BB103490348AFF3BE
:10314000008008BD000000007000002060590008E9
:1031500081F0004102E000BF83F0004330B54FEA48
:1031600041044FEA430594EA050F08BF90EA020FB5
:103170001FBF54EA000C55EA020C7FEA645C7FEA48
:10318000655C00F0E2804FEA5454D4EB5555B8BF6B
:103190006D420CDD2C4480EA020281EA030382EADC
:1031A000000083EA010180EA020281EA0303362D6E
:1031B00088BF30BD11F0004F4FEA01314FF4801C41
:1031C0004CEA113102D0404261EB410113F0004F53
:1031D0004FEA03334CEA133302D0524263EB43030A
:1031E00094EA050F00F0A780A4F10104D5F1200EA8
:1031F0000DDB02FA0EFC22FA05F2801841F1000103
:1032000003FA0EF2801843FA05F359410EE0A5F1D6
:1032100020050EF1200E012A03FA0EFC28BF4CF007
:10322000020C43FA05F3C01851EBE37101F00045BD
:1032300007D54FF0000EDCF1000C7EEB00006EEBCA
:103240000101B1F5801F1BD3B1F5001F0CD3490854
:103250005FEA30004FEA3C0C04F101044FEA4452AB
:1032600012F5800F80F09A80BCF1004F08BF5FEA32
:10327000500C50F1000041EB045141EA050130BD12
:103280005FEA4C0C404141EB010111F4801FA4F1B5
:103290000104E9D191F0000F04BF01460020B1FA0A
:1032A00081F308BF2033A3F10B03B3F120020CDA42
:1032B0000C3208DD02F1140CC2F10C0201FA0CF020
:1032C00021FA02F10CE002F11402D8BFC2F1200C85
:1032D00001FA02F120FA0CFCDCBF41EA0C0190403B
:1032E000E41AA2BF01EB0451294330BD6FEA040484
:1032F0001F3C1CDA0C340EDC04F11404C4F120026F
:1033000020FA04F001FA02F340EA030021FA04F380
:1033100045EA030130BDC4F10C04C4F1200220FAD7
:1033200002F001FA04F340EA0300294630BD21FA15
:1033300004F0294630BD94F0000F83F4801306BFDB
:1033400081F480110134013D4EE77FEA645C18BFCF
:103350007FEA655C29D094EA050F08BF90EA020F66
:1033600005D054EA000C04BF1946104630BD91EA5E
:10337000030F1EBF0021002030BD5FEA545C05D161
:103380004000494128BF41F0004130BD14F58004A0
:103390003CBF01F5801130BD01F0004545F0FE4114
:1033A00041F470014FF0000030BD7FEA645C1ABF49
:1033B000194610467FEA655C1CBF0B46024650EA80
:1033C000013406BF52EA033591EA030F41F40021AC
:1033D00030BD00BF90F0000F04BF0021704730B532
:1033E0004FF4806404F132044FF000054FF0000107
:1033F00050E700BF90F0000F04BF0021704730B5C8
:103400004FF4806404F1320410F0004548BF40429C
:103410004FF000013EE700BF42004FEAE2014FEAF1
:1034200031014FEA02701FBF12F07F4393F07F4FCC
:1034300081F06051704792F0000F14BF93F07F4FFE
:10344000704730B54FF4607401F0004521F0004141
:1034500020E700BF50EA010208BF704730B54FF0C7
:1034600000050AE050EA010208BF704730B511F0CC
:10347000004502D5404261EB41014FF4806404F104
:1034800032045FEA915C3FF4DCAE4FF003025FEA86
:10349000DC0C18BF03325FEADC0C18BF033202EB0E
:1034A000DC02C2F1200300FA03FC20FA02F001FA68
:1034B00003FE40EA0E0021FA02F11444C1E600BF07
:1034C00070B54FF0FF0C4CF4E06C1CEA11541DBFBA
:1034D0001CEA135594EA0C0F95EA0C0F00F0DEF885
:1034E0002C4481EA030621EA4C5123EA4C5350EA6A
:1034F000013518BF52EA033541F4801143F48013BB
:1035000038D0A0FB02CE4FF00005E1FB02E506F04B
:103510000042E0FB03E54FF00006E1FB03569CF0A0
:10352000000F18BF4EF0010EA4F1FF04B6F5007FA6
:1035300064F5407404D25FEA4E0E6D4146EB060618
:1035400042EAC62141EA55514FEAC52040EA5E50A1
:103550004FEACE2EB4F1FD0C88BFBCF5E06F1ED84B
:10356000BEF1004F08BF5FEA500E50F1000041EB82
:10357000045170BD06F0004646EA010140EA02002F
:1035800081EA0301B4EB5C04C2BFD4EB0C0541EA51
:10359000045170BD41F480114FF0000E013C00F366
:1035A000AB8014F1360FDEBF002001F0004170BD8A
:1035B000C4F10004203C35DA0C341BDC04F11404A3
:1035C000C4F1200500FA05F320FA04F001FA05F22F
:1035D00040EA020001F0004221F0004110EBD370FC
:1035E00021FA04F642EB06015EEA430E08BF20EA28
:1035F000D37070BDC4F10C04C4F1200500FA04F3CB
:1036000020FA05F001FA04F240EA020001F000415C
:1036100010EBD37041F100015EEA430E08BF20EACF
:10362000D37070BDC4F1200500FA05F24EEA020E17
:1036300020FA04F301FA05F243EA020321FA04F046
:1036400001F0004121FA04F220EA020000EBD370FD
:103650005EEA430E08BF20EAD37070BD94F0000FFD
:103660000FD101F00046400041EB010111F4801F31
:1036700008BF013CF7D041EA060195F0000F18BFE2
:10368000704703F00046520043EB030313F4801F1E
:1036900008BF013DF7D043EA0603704794EA0C0FD8
:1036A0000CEA135518BF95EA0C0F0CD050EA4106EE
:1036B00018BF52EA4306D1D181EA030101F000416B
:1036C0004FF0000070BD50EA410606BF1046194693
:1036D00052EA430619D094EA0C0F02D150EA01369F
:1036E00013D195EA0C0F05D152EA03361CBF1046E0
:1036F00019460AD181EA030101F0004141F0FE417F
:1037000041F470014FF0000070BD41F0FE4141F402
:10371000780170BD70B54FF0FF0C4CF4E06C1CEA02
:1037200011541DBF1CEA135594EA0C0F95EA0C0FB7
:1037300000F0A7F8A4EB050481EA030E52EA033572
:103740004FEA013100F088804FEA03334FF0805593
:1037500045EA131343EA12634FEA022245EA1115C0
:1037600045EA10654FEA00260EF000419D4208BF71
:10377000964244F1FD0404F5407402D25B084FEA1E
:103780003202B61A65EB03055B084FEA32024FF4CA
:1037900080104FF4002CB6EB020E75EB030E22BF27
:1037A000B61A754640EA0C005B084FEA3202B6EBE7
:1037B000020E75EB030E22BFB61A754640EA5C0096
:1037C0005B084FEA3202B6EB020E75EB030E22BF26
:1037D000B61A754640EA9C005B084FEA3202B6EB27
:1037E000020E75EB030E22BFB61A754640EADC00E6
:1037F00055EA060E18D04FEA051545EA16754FEA48
:1038000006164FEAC30343EA52734FEAC2025FEA65
:103810001C1CC0D111F4801F0BD141EA00014FF0F4
:1038200000004FF0004CB6E711F4801F04BF0143C5
:103830000020B4F1FD0C88BFBCF5E06F3FF6AFAEE1
:10384000B5EB030C04BFB6EB020C5FEA500C50F171
:10385000000041EB045170BD0EF0004E4EEA1131F4
:1038600014EB5C04C2BFD4EB0C0541EA045170BDFB
:1038700041F480114FF0000E013C90E645EA060E3F
:103880008DE60CEA135594EA0C0F08BF95EA0C0F6D
:103890003FF43BAF94EA0C0F0AD150EA01347FF4B5
:1038A00034AF95EA0C0F7FF425AF104619462CE78C
:1038B00095EA0C0F06D152EA03353FF4FDAE1046EF
:1038C000194622E750EA410618BF52EA43067FF440
:1038D000C5AE50EA41047FF40DAF52EA43057FF4D0
:1038E000EBAE12E74FEA4102B2F1E04324BFB3F579
:1038F000001CDCF1FE5C0DD901F0004C4FEAC00267
:103900004CEA5070B2F1004F40EB830008BF20F04A
:103910000100704711F0804F21D113F13872BCBF04
:1039200001F00040704741F480114FEA5252C2F159
:103930001802C2F1200C10FA0CF320FA02F018BFA2
:1039400040F001004FEAC1234FEAD32303FA0CFCF5
:1039500040EA0C0023FA02F34FEA4303CCE77FEA84
:10396000625307D150EA01331EBF4FF0FE4040F4CE
:103970004000704701F0004040F0FE4040F400007D
:10398000704700BF80F0004002E000BF81F00041BE
:1039900042001FBF5FEA410392EA030F7FEA226CF5
:1039A0007FEA236C6AD04FEA1262D2EB1363C1BF85
:1039B000D218414048404140B8BF5B42192B88BFF4
:1039C000704710F0004F40F4000020F07F4018BF17
:1039D000404211F0004F41F4000121F07F4118BF37
:1039E000494292EA030F3FD0A2F1010241FA03FCDF
:1039F00010EB0C00C3F1200301FA03F100F00043C7
:103A000002D5494260EB4000B0F5000F13D3B0F18E
:103A1000807F06D340084FEA310102F10102FE2AFD
:103A200051D2B1F1004F40EBC25008BF20F001006D
:103A300040EA03007047490040EB000010F4000F1B
:103A4000A2F10102EDD1B0FA80FCACF1080CB2EBAE
:103A50000C0200FA0CF0AABF00EBC250524218430D
:103A6000BCBFD0401843704792F0000F81F40001B2
:103A700006BF80F400000132013BB5E74FEA410385
:103A80007FEA226C18BF7FEA236C21D092EA030FF1
:103A900004D092F0000F08BF0846704790EA010F6B
:103AA0001CBF0020704712F07F4F04D1400028BF98
:103AB00040F00040704712F100723CBF00F500007A
:103AC000704700F0004343F0FE4040F400007047B0
:103AD0007FEA226216BF08467FEA2363014642025C
:103AE00006BF5FEA412390EA010F40F4800070476F
:103AF0004FF0000304E000BF10F0004348BF404215
:103B00005FEA000C08BF704743F0964301464FF050
:103B100000001CE050EA010208BF70474FF00003AC
:103B20000AE000BF50EA010208BF704711F00043ED
:103B300002D5404261EB41015FEA010C02BF8446BD
:103B40000146002043F0B64308BFA3F18053A3F51C
:103B50000003BCFA8CF2083AA3EBC25310DB01FA63
:103B600002FC634400FA02FCC2F12002BCF1004FE7
:103B700020FA02F243EB020008BF20F00100704778
:103B800002F1200201FA02FCC2F1200250EA4C00CC
:103B900021FA02F243EB020008BF20EADC70704712
:103BA000084B10B5044618684FF47A73B0FBF3F075
:103BB00000F044FA002221464FF0FF3000F00AFAEC
:103BC000002010BD04000020074A08B51368032038
:103BD00043F01003136000F0EBF90020FFF7E0FF63
:103BE00001F07AF9002008BD00200240024A136863
:103BF00001331360704700BFA0000020014B18681C
:103C0000704700BFA000002037B50190FFF7F6FF16
:103C10000546019C631C18BF0134FFF7EFFF401BF2
:103C2000A042FAD303B030BD0368D86C70470000DF
:103C3000002373B5019390F82430012B74D0012335
:103C40004D6880F82430062D02684FEA85030C6821
:103C500025D82B441F25566B053B9D4026EA0505BC
:103C600004FA03F32B435363092C4FEA44038D6892
:103C70002FD907262344D1681E3B9E4021EA060126
:103C800005FA03F30B43D360A4F11003012B2BD9E6
:103C90000023002280F82420184602B070BD0C2DAD
:103CA0000BD82B441F25166B233B9D4026EA0505A8
:103CB00004FA03F32B431363D6E72B441F25D66A7C
:103CC000413B9D4026EA050504FA03F32B43D362EA
:103CD000CAE70726116923449E4021EA060105FA36
:103CE00003F30B431361CFE7104B9A4216D193684D
:103CF0001B02CDD49368102C43F400039360C7D10A
:103D00000B4B0C4A1B68B3FBF2F20A23534301939B
:103D1000019B002BBCD0019B013BF8E7836A43F079
:103D2000200383620123B4E70223B5E700240140A6
:103D30000400002040420F00002373B50193036884
:103D400004469A68D20702D5002002B070BD9A6876
:103D500042F001029A60124B124A1B68B3FBF2F365
:103D60000193019BC3B9FFF749FF064623689D688D
:103D700015F00105E8D1FFF741FF801B0228F5D9B6
:103D8000A36A84F8245043F01003A362E36A01207D
:103D900043F00103E362D8E7019B013BE0E700BF8A
:103DA0000400002040420F0090F8243010B5012B91
:103DB000044654D0012380F82430FFF7BDFF0028CB
:103DC00049D1A36A274A23F4407323F0010343F443
:103DD0008073A3622368934204D123494A6812F492
:103DE000702F2ED1A26A22F48012A2625A68520564
:103DF00041BFA26A22F4405242F48052A262A26AF7
:103E000012F480521CBFE26A22F00602E262002233
:103E100084F824206FF002021A609A6802F460228B
:103E2000B2F5602F13D10F4A934205D1A2F58062FB
:103E3000526812F4702F0AD19A6842F4A0029A6074
:103E400010BDA26A42F48012A2624A68CFE79A6863
:103E500042F48012F3E7002384F8243010BD0220DE
:103E600010BD00BF002801400024014038B50368A0
:103E700004469A68D20701D4002038BD9A6822F01F
:103E800001029A60FFF7BAFE054623689B68DB07CC
:103E9000F2D5FFF7B3FE401B0228F6D9A36A012032
:103EA00043F01003A362E36A43F00103E36238BD09
:103EB00070B50446002871D0836A23B9C36280F8C4
:103EC000243001F051F82046FFF7D0FFA36A13F029
:103ED000100FA36A64D1002862D1E16923F48853EA
:103EE000626823F0020343F002030A43A168A3625D
:103EF000E368B1F5807F42EA430238D0012914BF5C
:103F000006464FF480766569012D07D1002B30D12C
:103F1000A369013B46EA433545F400662368B1F5E1
:103F2000807F5D6825F4694545EA06055D609E6809
:103F30001D4D05EA060545EA02059D6001D00129EF
:103F400020D1216901390905DD6A25F4700529436D
:103F5000D9629968154B0B409A4215D10023E36250
:103F6000A36A23F0030343F00103A36270BD0E466E
:103F7000C9E7A36A43F02003A362E36A43F00103A5
:103F8000E362CBE70021DFE7A36A23F0120343F0EB
:103F90001003A362E36A43F00103E362012070BDF2
:103FA00043F01003A362F9E7FDF7E1FFFE0E1FFFE8
:103FB000074A0002D36800F4E06023F4E0631B04C6
:103FC0001B0C43F0BF6343F400330343D3607047DB
:103FD00000ED00E0174B30B5DC68C4F30224C4F1F7
:103FE0000703251D042B28BF0423062D4FF00105D0
:103FF00098BF002405FA03F303F1FF3388BF033CA5
:104000001940A14005FA04F4013C2240002842EA8C
:1040100001024FEA0212AFBF00F16040064B00F010
:104020000F00D2B2A5BFD2B200F561401A5480F899
:10403000002330BD00ED00E014ED00E00138B0F1E8
:10404000807F0AD2F021064B064A586082F823107E
:104050000020072298601A6070470120704700BF57
:1040600010E000E000ED00E0044B04281A680CBFEB
:1040700042F0040222F004021A60704710E000E0EF
:10408000704708B5FFF7FCFF08BD00002DE9F74FAA
:1040900000221646654BDFF8A4E1DFF8A4C14FF01B
:1040A00001080C6808FA06F808EA0404A0457FD164
:1040B0004D68122D00F0AF8000F28880022D00F0D4
:1040C000A7807CD8002D00F08E80012D00F09E800E
:1040D0004FF00F09FF2C93BF824606F18045083D43
:1040E000D0F800B092BFB500D0F804B0AD0009FA26
:1040F00005F82BEA080802FA05F588BF00F1040A62
:1041000048EA0505CAF80050D1F804A01AF0805F0B
:104110004ED0474D464FAD6926F0030845F00105E6
:10412000BD61BD6908F1804805F00105019508F5FC
:10413000803806F0030B019D4FEA8B0BD8F808502E
:1041400009FA0BF925EA09093A4DA84268D005F5A4
:104150008065A84266D005F58065A84264D005F563
:104160008065A8420CBF0325042505FA0BF545EA36
:104170000905C8F808501D681AF4803F14BF25438C
:10418000A5431D605D681AF4003F14BF2543A54395
:104190005D609D681AF4801F14BF2543A5439D6090
:1041A000DD681AF4001F14BF2C4325EA0404DC6008
:1041B0000136102E7FF473AF03B0BDE8F08F032DEE
:1041C00022D0112D84D1CA68043281E71A4FBD4232
:1041D00009D012D8DFF86C904D4504D009F580392C
:1041E0004D457FF475AF8A68C2B1012A0CBFC0F893
:1041F0001080C0F8148008226AE77545F3D0654541
:10420000F1D0DFF84490EBE7002261E7CA685FE78E
:10421000CA6808325CE7CA680C3259E7042257E7DB
:104220000025A2E70125A0E702259EE70004014042
:104230000010024000080140000021100000311071
:104240000000321000001110000022100AB10161BC
:1042500070470904FBE7000003682DE9F341DB0721
:10426000054610D42B689F075ED42B68190700F110
:1042700095802B685A0700F1BF80EA69002A40F058
:104280002D81002014E0904C636803F00C03042B94
:1042900007D0636803F00C03082B0CD16368DE03BE
:1042A00009D523689C03DDD56B68002BDAD101208A
:1042B00002B0BDE8F0816B68B3F5803F10D1236890
:1042C00043F480332360FFF799FC06462368980384
:1042D000C8D4FFF793FC801B6428F7D90320E7E7D5
:1042E0009BB9236823F480332360236823F480235D
:1042F0002360FFF783FC064623689903B2D5FFF7D6
:104300007DFC801B6428F7D9E8E7B3F5A02F23686C
:1043100003D143F480232360D1E723F48033236067
:10432000236823F48023CDE7674C636813F00C0FF8
:1043300007D0636803F00C03082B10D16368DA031D
:104340000DD423689B0702D52B69012BAFD12368BD
:104350006A6923F0F80343EAC203236085E72A6908
:104360005A4B6AB101221A60FFF748FC06462368DF
:104370009F07ECD4FFF742FC801B0228F7D9ADE77A
:104380001A60FFF73BFC0646236898077FF56DAF80
:10439000FFF734FC801B0228F6D99FE7AA694A4C34
:1043A0004B4BDAB101221A60FFF728FC0646636A1C
:1043B0009B070DD54FF4FA52464B1B68B3FBF2F343
:1043C000019300BF019B5A1E0192002BF9D150E7C7
:1043D000FFF714FC801B0228E9D97FE71A60FFF77A
:1043E0000DFC0646636A9F077FF543AFFFF706FCA7
:1043F000801B0228F6D971E7334CE369D80024D436
:104400000127E36943F08053E361E36903F08053DC
:104410000093009B304E3368D90518D5EB68012B0B
:1044200026D1236A43F001032362FFF7E7FB41F241
:1044300088368046236A9B073FD5002F3FF41DAF87
:10444000E36923F08053E36117E70027E2E733686D
:1044500043F480733360FFF7D1FB80463368DA059D
:10446000DCD4FFF7CBFBA0EB08006428F6D935E7D6
:10447000ABB9236A41F2883823F001032362236A2F
:1044800023F004032362FFF7B9FB0646236A98076B
:10449000D3D5FFF7B3FB801B4045F7D91EE7052BAB
:1044A000236A03D143F004032362BAE723F0010334
:1044B0002362236A23F00403B6E7FFF79FFBA0EB18
:1044C0000800B042B6D909E700100240000042429D
:1044D000800442420400002000700040224C6368C7
:1044E00003F00C03082B3FF4E2AE00231F4E022A18
:1044F00033602BD1FFF782FB0746236899011FD455
:104500002B6AB3F5803F05D16268A96822F40032B6
:104510000A436260696A62680B4322F474121343AF
:10452000636001233360FFF769FB054623689A0146
:104530003FF5A7AEFFF762FB401B0228F6D9CDE698
:10454000FFF75CFBC01B0228D7D9C7E6FFF756FB75
:10455000054623689B017FF594AEFFF74FFB401B98
:104560000228F6D9BAE600BF0010024060004242BD
:1045700030B51A4B87B002AC03F11005224618681B
:104580005968083303C2AB421446F7D101238DF8B2
:104590000430022312498DF805304B6803F00C02F9
:1045A000082A18D1C3F38342DB0348BF4B6806A82F
:1045B000024448BFC3F3404312F8100C41BF06AA9F
:1045C0009B1813F8142C074B54BF074BB3FBF2F3A3
:1045D000584307B030BD0348FBE700BF78590008D7
:1045E0000010024000127A0000093D004D4A2DE9FA
:1045F000F0411368054603F007038B420E4628D3AB
:104600002A68910732D4D20738D4464A136803F097
:1046100007039E4273D32A68434C12F0040F79D1EA
:10462000130706D563682A6923F4605343EAC2037B
:104630006360FFF79DFF63683C4AC3F30313D35CD9
:10464000D8403B4B18600020FFF7AAFA0020BDE8D5
:10465000F081136823F007030B431360136803F022
:1046600007039942CCD00120BDE8F0812E49A8680B
:104670004B6823F0F00303434B60C4E76A682A4C9D
:10468000012A23681CD113F4003FECD0636841F287
:10469000883823F0030313436360FFF7AFFA6B68B6
:1046A0000746012B14D1636803F00C03042BACD034
:1046B000FFF7A4FAC01B4045F5D90320BDE8F081FF
:1046C000022A02D113F0007FDFE713F0020FDCE7CC
:1046D000022B0FD1636803F00C03082B95D0FFF772
:1046E0008DFAC01B4045F5D9E7E7FFF787FAC01BF5
:1046F0004045E2D8636813F00C0FF6D185E71368E4
:1047000023F0070333431360136803F007039E424B
:10471000A9D180E76368E96823F4E0630B43636031
:104720007EE700BF00200240001002409B590008B5
:1047300004000020014B1868704700BF04000020EF
:1047400003682DE9F341D907054620D5354CE369C7
:10475000DA0032D40127E36943F08053E361E3696F
:1047600003F080530193019B2F4E3368DB0526D560
:10477000236A13F4407336D1236A6A6823F44073C2
:10478000134323621FB1E36923F08053E361286878
:10479000830706D5234AA968536823F440430B4393
:1047A000536010F010001BD01E4AE96853680020C7
:1047B00023F480030B43536012E00027D4E73368EF
:1047C00043F480733360FFF719FA80463368D805E5
:1047D000CED4FFF713FAA0EB08006428F6D9032023
:1047E00002B0BDE8F0816A6802F440729342C3D01F
:1047F00001200E4A236A1060002023F440711060EB
:104800002162D907B8D5FFF7F9F941F28838064691
:10481000236A9A07B0D4FFF7F1F9801B4045F7D916
:10482000DDE700BF0010024000700040400442423B
:104830002DE9F0410446884617461D46069E22682B
:10484000936838EA03030CBF012300239F4202D17F
:104850000020BDE8F0816B1CF2D055BB23685A687C
:1048600022F0E0025A606268B2F5827F0AD1A26843
:10487000B2F5004F02D0B2F5806F03D11A6822F072
:1048800040021A60A26AB2F5005F09D11A6822F4E8
:1048900000521204120C1A601A6842F400521A6094
:1048A000012384F851300023032084F85030BDE800
:1048B000F081FFF7A3F9801B8542C0D8CEE713B57E
:1048C0000B460092802100220446FFF7B1FF20B181
:1048D0000320636D43F02003636502B010BD2DE932
:1048E000FF411E4690F850300446012B0D4690467D
:1048F00000F09C80012380F85030FFF77FF90746D5
:1049000094F85100C0B2012840F08E80002D4ED0A6
:10491000B8F1000F4BD0032384F8513000236365B6
:10492000A363A4F83680A387E38763642364A36842
:104930002563B3F5004F2368A4F8348002BF1A68DA
:1049400042F480421A601A6852065EBF1A6842F04A
:1049500040021A60E268B2F5006F626838D11AB19D
:10496000E28E92B2012A06D135F8022BDA60E38E8C
:10497000013B9BB2E386E38E9BB293B9009733462B
:10498000012202212046FFF753FF78B93A4631460B
:104990002046FFF794FF002838D0202301206365CC
:1049A00005E023689A689007DED44EB903200123FE
:1049B00084F85130002384F8503004B0BDE8F08111
:1049C000711CD8D0FFF71AF9C01B8642D3D8EDE787
:1049D0001AB1E28E92B2012A06D115F8012B1A7390
:1049E000E38E013B9BB2E386E38E9BB2002BC5D0E6
:1049F00023689A689207F0D4002ED7D0731CF3D0A6
:104A0000FFF7FCF8C01B8642EED8CFE7A36833B9A6
:104A100003932368DA6803929B680393039B606D9A
:104A2000003018BF0120C2E70220C0E70220C4E71F
:104A300010B50446002834D00023836290F851302A
:104A40000BB900F0B1FA0223216884F851300B68E9
:104A5000A06823F040030B606368A2690343E06829
:104A600003432069034360690343E0690343206A09
:104A70000343A06A034302F4007003430B60120C6B
:104A8000636A02F004021A43E36A4A600B61CB696D
:104A9000002023F40063CB610123606584F851306A
:104AA00010BD012010BD00000B4B1B688342D8BF16
:104AB00003F1FF30094B1B688B42D8BF03F1FF3174
:104AC000074B1860074B1960074B1A68074B514397
:104AD0001B68584300F0BEB8A4000020B4010020B9
:104AE000A8000020AC000020CC030020D003002050
:104AF000030630B515D41F2893BF0D4B0D4AA0F106
:104B000020031B688ABF106803EBC00000EBC300E2
:104B10000146094B094D1B68013B2C680A1A944257
:104B200000DC30BD11F8012B03F8012FF5E700BFC1
:104B3000DC030020C8030020C0030020D0030020B5
:104B40000C4B0D491A68096801328A421A600B4AF7
:104B500004DB0021196011680131116008491068F7
:104B600009688842A4BF0021116011681868FFF726
:104B70009BBF00BFA8000020A4000020AC000020C4
:104B8000B401002010B5441E14F8010F30B9064BD3
:104B90001B6843B1BDE8104000F034B8FFF7A8FF30
:104BA000FFF7CEFFF0E710BDD4030020F8B50546AF
:104BB0000E460024064FAC4206EB040100DBF8BDB4
:104BC0004FF0FF3301223846FFF789FE0134F2E748
:104BD0001404002007B502A901F8010D4FF0FF33BE
:104BE00001220348FFF77BFE03B05DF804FB00BF22
:104BF000140400200A4601460148FFF727BB00BF06
:104C00000008014038B500240E4D00210220FFF7B6
:104C1000F1FF2220FFF7DEFFE0B2FFF7DBFF00200D
:104C2000FFF7D8FF1020FFF7D5FF01210220FFF783
:104C3000E1FF05EBC41180200134FFF7B7FF042C1E
:104C4000E3D138BDBC01002080F30700704780F33A
:104C50000500704708B5FFF7F7FF03460846FFF762
:104C6000F6FF094A1360094A1060082290FBF2F22D
:104C700003EBC213064A00F007001344054A136011
:104C8000054B186008BD00BFBC030020B801002020
:104C9000BC010020C0030020E0030020012310B568
:104CA00094B00E93102302240F9300230AA80A94B1
:104CB0001193FFF7D1FA014600B1FEE70F230690EA
:104CC00007900890099005A80593FFF78FFC00B1A5
:104CD000FEE7039001A80194FFF732FD044600B1FE
:104CE000FEE7FFF727FD4FF47A73B0FBF3F0FFF711
:104CF000A5F90420FFF7B8F9224621464FF0FF300E
:104D0000FFF768F914B010BD2DE9804889B0FEF7AF
:104D10005BFFFFF7C3FF624B4FF400519A69614894
:104D200042F010029A619A69012502F01002009285
:104D3000009A9A69022642F020029A619A695A4CB6
:104D400002F020020192019A9A6942F004029A61EB
:104D50009B69002203F004030293029BFFF776FA9B
:104D6000002207215148FFF771FA4FF4005303A9BD
:104D70004C48039304950696FFF788F907234B48A0
:104D800003A9039304950696FFF780F9484B4FF467
:104D90006022236000232046A360E3606361E26138
:104DA00063602561FFF784F800B1FEE703230590F7
:104DB00003A9204603930495FEF73AFF00B1FEE7EE
:104DC0004FF482723B4B3C49986083E806004FF4F5
:104DD00000729A610A22D860D8611862586298629B
:104DE00018461E615D61DA62FFF722FE00B1FEE740
:104DF000204629A5D5E90045FEF7D6FFDFF8D4B057
:104E000000210846FFF750FE5846FFF7BBFE264834
:104E1000FEF70AFFFEF76CFE284B1860FEF7FCFA5F
:104E200022462B46FEF74CFB0022254BFEF748FBA3
:104E3000FEF758FD234B82461860234B1868FEF797
:104E4000EBFA22462B4606460F46FEF739FB804614
:104E500050468946FEF7E0FA02460B464046494670
:104E6000FEF758FC32463B46FEF776F9FEF73AFD70
:104E7000164B1860FEF7D0FA02460B4603A81449F9
:104E800000F034F9FFF77EFE4FF4FA70FEF7BCFE37
:104E9000B6E700BFAFF300806666666666660A40E6
:104EA0000010024000100140E4030020000801400F
:104EB0000024014014040020003001408C00002038
:104EC0000000303F880000200000002090000020FB
:104ED0009659000888590008214B07B59A690320A4
:104EE00042F001029A619B6903F001030193019B67
:104EF000FFF75EF800226FF00B001146FFF76AF82B
:104F000000226FF00A001146FFF764F800226FF0EC
:104F100009001146FFF75EF800226FF00400114609
:104F2000FFF758F800226FF003001146FFF752F820
:104F300000226FF001001146FFF74CF800224FF0FD
:104F4000FF301146FFF746F8064B5A6822F0E06240
:104F50005A605A6842F000725A6003B05DF804FB70
:104F600000100240000001407FB502680C4B9A42DD
:104F700012D103F56C439A6902A942F400729A6156
:104F80009B69084803F400730193019B0823029373
:104F900003230393FFF77AF807B05DF804FB00BF23
:104FA00000240140000801407FB502680D4B9A4281
:104FB00014D103F560439A6902A942F480529A61C0
:104FC0009B69094803F480530193019BA02302933A
:104FD0000223039303230593FFF758F807B05DF806
:104FE00004FB00BF00300140000801407047FEE7AD
:104FF000FEE7FEE7FEE770477047704708B5FEF72B
:10500000F5FDBDE80840FFF73CB800000F4B1A68FB
:1050100042F001021A6059680D4A0A405A601A6843
:1050200022F0847222F480321A601A6822F48022FC
:105030001A605A6822F4FE025A604FF41F029A6006
:105040004FF00062034B9A60704700BF00100240AF
:105050000000FFF800ED00E0002103E00B4B5B587F
:10506000435004310A480B4B42189A42F6D30A4A7D
:1050700002E0002342F8043B084B9A42F9D3FFF7C1
:10508000C5FF00F00FF8FFF73FFE7047E859000832
:10509000000000206C0000206C0000207004002044
:1050A000FEE7000070B500250C4E0D4CA41BA410AB
:1050B000A54209D100F054FC00250A4E0A4CA41B5D
:1050C000A410A54205D170BD56F82530984701358A
:1050D000EEE756F8253098470135F2E7E059000829
:1050E000E0590008E0590008E45900080EB44FF4F4
:1050F000027100B59CB0ADF814106FF0004104913E
:1051000007914FF6FF711DAB02900690084853F8C7
:10511000042BADF81610006802A9019300F066F8A0
:105120000022029B1A701CB05DF804EB03B07047BC
:10513000080000202DE9F0478E6882469E420C460A
:105140009146984635D88A8912F4906F31D002235F
:10515000256809696F1A656905EB450595FBF3F547
:1051600008F101033B449D4238BF1D46530531D52C
:10517000294600F047FB064650B90C23CAF8003018
:10518000A3894FF0FF3043F04003A381BDE8F087CF
:105190003A46216900F0C4FAA38923F4906343F0EE
:1051A0008003A38126613E44266046466561ED1B6F
:1051B000A560464528BF464649463246206800F06D
:1051C000BAFAA36800209B1BA36023681E442660D4
:1051D000BDE8F0872A4600F073FB06460028E1D1BF
:1051E0002169504600F0C2FAC7E700002DE9F04FF0
:1051F0009DB003938B8980461C060D4616460FD53D
:105200000B696BB9402100F0FDFA2860286128B9CC
:105210000C23C8F800304FF0FF30C4E040236B612E
:105220000023099320238DF8293030234FF0010B00
:105230008DF82A3037463C4614F8013B002B3CD110
:10524000B7EB060A0BD05346324629464046FFF7D5
:1052500071FF013000F0A280099B534409933B7811
:10526000002B00F09B8000234FF0FF320493079344
:10527000059206938DF853301A93052221785048F1
:1052800000F040FA671C049BD8B9D90644BF20221D
:105290008DF853201A0744BF2B228DF85320227813
:1052A0002A2A16D000210A20079A27463B78013483
:1052B000303B092B50D9C9B111E0252BC0D027466E
:1052C000B9E73F4A3C46801A0BFA00F018430490B5
:1052D000D3E7039A111D12680391002A01DB07929C
:1052E00004E0524243F00203079204933B782E2BD2
:1052F0000DD17B78791C2A2B32D1039B02371A1DE2
:105300001B680392002BB8BF4FF0FF3305932D4C61
:1053100003223978204600F0F5F938B14023001B0C
:1053200003FA00F0049B0137034304933978062203
:1053300025487E1C8DF8281000F0E4F9002835D0AF
:10534000224BFBB9039B073323F007030833039376
:10535000099B4B4409936DE700FB02320121A4E74E
:1053600000230A24184605930F463A780131303A53
:10537000092A03D9002BCAD00590C8E704FB0020F6
:105380000123F1E703AB00932A46114B04A94046E1
:10539000AFF30080B0F1FF3F8146D9D1AB895B0606
:1053A0003FF539AF09981DB0BDE8F08F03AB00930E
:1053B0002A46074B04A9404600F084F8EAE700BFFC
:1053C000AB590008B1590008B559000800000000A9
:1053D000355100082DE9F04791461F468A680B6950
:1053E00006469342B8BF1346C9F8003091F84320EF
:1053F0000C46DDF8208012B10133C9F80030236873
:10540000990642BFD9F800300233C9F80030256848
:1054100015F0060507D104F1190AE368D9F8002050
:105420009B1A9D422ADB94F843302268003318BF50
:10543000012392062FD404F1430239463046C04777
:10544000013022D02368E56803F00603042B18BF5F
:105450000025D9F800204FF0000908BFAD1AA36855
:10546000226908BF25EAE5759342C4BF9B1AED186F
:105470001A344D451BD10020BDE8F0870123524668
:1054800039463046C047013003D14FF0FF30BDE808
:10549000F0870135C1E73020E11881F843005A1C3C
:1054A00094F845102244023382F84310C3E70123E5
:1054B000224639463046C0470130E6D009F101099D
:1054C000D7E700002DE9F04317460A7E85B06E2A23
:1054D000984606460C460C9B01F1430E00F0BC803A
:1054E0001AD8632A2ED00AD8002A00F0C880582A79
:1054F00000F08A8004F1420584F842202AE0642A00
:1055000001D0692AF6D121681A6811F0800F23D0E2
:10551000111D1960136827E0732A00F0B48008D8C1
:105520006F2A2AD0702AE5D10A6842F020020A6068
:1055300003E0752A21D0782ADCD178226F4984F8DB
:10554000452064E01A6801F14205111D19601368D5
:1055500084F842300123A3E011F0400F02F104016E
:105560001960D7D0B2F90030002B03DA2D225B424C
:1055700084F8432062490A2217E02068196810F075
:10558000800F03D0081D18600B6806E010F0400F74
:1055900001F104001860F7D00B886F2A14BF0A22AB
:1055A00008225749002084F843006568002DA56053
:1055B000C0F29C80206820F004002060002B3FD1C6
:1055C000002D40F095807546082A0BD12368DA0734
:1055D00008D5236962689A42DEBF302305F8013C92
:1055E00005F1FF35AEEB05032361CDF800803B46A6
:1055F00003AA21463046FFF7EDFE013055D14FF0AA
:10560000FF3005B0BDE8F08381F845203C492268B1
:10561000186812F0800F00F104051D6001D00368C6
:1056200002E05506FBD50388D00744BF42F02002B4
:1056300022601BB9226822F0200222601022B1E70A
:105640007546B3FBF2F002FB1033CB5C05F8013D6D
:1056500003460028F5D1B7E708681A6810F0800FF4
:10566000496904D0101D18601368196007E010F034
:10567000400F02F1040018601368F6D0198000236F
:1056800075462361B1E71A68111D1960156800217C
:105690006268284600F036F808B1401B6060636815
:1056A0002361002384F843309FE723692A46394663
:1056B0003046C0470130A2D023689B0707D500259C
:1056C00004F11909E368039A9B1A9D4205DBE0681F
:1056D000039B9842B8BF184693E701234A463946D0
:1056E0003046C04701308AD00135EBE7002BA7D107
:1056F0000B7804F1420584F8423065E7CD59000883
:10570000BC59000810B5C9B202449042034601D109
:10571000002010BD1C7801308C42F6D1184610BD17
:1057200010B5431E0A44914200D110BD11F8014B3F
:1057300003F8014FF7E7884210B501EB020303D8E5
:10574000421E99420CD110BD9842F9D28118D21A4A
:10575000D34200D110BD13F8014D01F8014DF7E718
:1057600011F8014B02F8014FEBE7000038B5054690
:10577000002943D051F8043C0C1F002BB8BFE4189B
:1057800000F0D4F81E4A1368104633B96360146001
:105790002846BDE8384000F0CAB8A3420BD92168BA
:1057A0006218934201BF1A685B68521822606360F6
:1057B0000460EDE713465A680AB1A242FAD91968A3
:1057C0005818A0420BD12068014458188242196031
:1057D000DED110685268014419605A60D8E702D9D6
:1057E0000C232B60D4E7206821188A4201BF11687E
:1057F00052680918216062605C60C9E738BD00BF6B
:105800009400002070B5CD1C25F0030508350C2D43
:1058100038BF0C25002D064601DBA94203D90C2315
:105820003360002070BD00F081F8234A14682146DF
:1058300091B9224C23681BB9304600F067F820600C
:105840002946304600F062F8431C26D10C2330462E
:10585000336000F06CF8E4E70B685B1B1AD40B2B89
:105860000FD90B60CC18CD50304600F060F804F131
:105870000B00231D20F00700C31A1BD05A42E25030
:1058800070BD8C420BBF63684B681360636018BFC8
:105890000C46E9E70C464968CAE7C41C24F0030437
:1058A000A04205D0211A304600F030F80130CDD0AA
:1058B0002560D9E770BD00BF94000020980000204B
:1058C000F8B5074614460E4621B91146BDE8F84022
:1058D000FFF798BF22B9FFF749FF25462846F8BDD4
:1058E00000F026F884420FD921463846FFF78AFF98
:1058F00005460028F2D031462246FFF711FF314617
:105900003846FFF733FFE9E73546E7E738B50023C8
:10591000054C05460846236000F014F8431C02D1EC
:10592000236803B12B6038BD6C04002070477047BA
:1059300051F8040C0028A0F10400BCBF0B58C0189B
:1059400070470000044B0246196809B90349196001
:10595000186802441A6070479C0000207004002000
:10596000F8B500BFF8BC08BC9E467047F8B500BF4C
:08597000F8BC08BC9E4670471C
:1059780002030405060708090A0B0C0D0E0F101088
:10598800526573697374656E6369613A2000252EE8
:105998003266000000000000000000010203040657
:1059A800070809232D302B2000686C4C00656667BA
:1059B800454647003031323334353637383941427D
:1059C800434445460030313233343536373839614F
:0859D8006263646566000000D3
:0459E0003531000855
:0459E4001131000875
:1059E80000007A4400A24A040C00002000000000D5
:1059F800000000000000000000000000000000009F
:105A0800000000000000000000000000000000008E
:105A1800000000000000000000000000000000007E
:105A2800000000000000000000000000000000006E
:105A3800000000000000000000000000000000005E
:0C5A480000000000000000000000000052
:040000050800505946
:00000001FF
